{
  "contractName": "Shop",
  "abi": [
    {
      "inputs": [],
      "stateMutability": "nonpayable",
      "type": "constructor"
    },
    {
      "inputs": [
        {
          "internalType": "address",
          "name": "",
          "type": "address"
        }
      ],
      "name": "chainsawBalance",
      "outputs": [
        {
          "internalType": "uint256",
          "name": "",
          "type": "uint256"
        }
      ],
      "stateMutability": "view",
      "type": "function",
      "constant": true
    },
    {
      "inputs": [
        {
          "internalType": "address",
          "name": "",
          "type": "address"
        }
      ],
      "name": "chewingGumBalance",
      "outputs": [
        {
          "internalType": "uint256",
          "name": "",
          "type": "uint256"
        }
      ],
      "stateMutability": "view",
      "type": "function",
      "constant": true
    },
    {
      "inputs": [],
      "name": "owner",
      "outputs": [
        {
          "internalType": "address",
          "name": "",
          "type": "address"
        }
      ],
      "stateMutability": "view",
      "type": "function",
      "constant": true
    },
    {
      "inputs": [
        {
          "internalType": "address",
          "name": "",
          "type": "address"
        }
      ],
      "name": "snickerBalance",
      "outputs": [
        {
          "internalType": "uint256",
          "name": "",
          "type": "uint256"
        }
      ],
      "stateMutability": "view",
      "type": "function",
      "constant": true
    },
    {
      "inputs": [],
      "name": "getSnickerBalance",
      "outputs": [
        {
          "internalType": "uint256",
          "name": "",
          "type": "uint256"
        }
      ],
      "stateMutability": "view",
      "type": "function",
      "constant": true
    },
    {
      "inputs": [
        {
          "internalType": "uint256",
          "name": "amount",
          "type": "uint256"
        }
      ],
      "name": "restockSnicker",
      "outputs": [],
      "stateMutability": "nonpayable",
      "type": "function"
    },
    {
      "inputs": [
        {
          "internalType": "uint256",
          "name": "amount",
          "type": "uint256"
        }
      ],
      "name": "purchaseSnicker",
      "outputs": [],
      "stateMutability": "payable",
      "type": "function",
      "payable": true
    },
    {
      "inputs": [],
      "name": "getChewingGumBalance",
      "outputs": [
        {
          "internalType": "uint256",
          "name": "",
          "type": "uint256"
        }
      ],
      "stateMutability": "view",
      "type": "function",
      "constant": true
    },
    {
      "inputs": [
        {
          "internalType": "uint256",
          "name": "amount",
          "type": "uint256"
        }
      ],
      "name": "restockChewingGum",
      "outputs": [],
      "stateMutability": "nonpayable",
      "type": "function"
    },
    {
      "inputs": [
        {
          "internalType": "uint256",
          "name": "amount",
          "type": "uint256"
        }
      ],
      "name": "purchaseChewingGum",
      "outputs": [],
      "stateMutability": "payable",
      "type": "function",
      "payable": true
    },
    {
      "inputs": [],
      "name": "getChainsawBalance",
      "outputs": [
        {
          "internalType": "uint256",
          "name": "",
          "type": "uint256"
        }
      ],
      "stateMutability": "view",
      "type": "function",
      "constant": true
    },
    {
      "inputs": [
        {
          "internalType": "uint256",
          "name": "amount",
          "type": "uint256"
        }
      ],
      "name": "restockchainsaw",
      "outputs": [],
      "stateMutability": "nonpayable",
      "type": "function"
    },
    {
      "inputs": [
        {
          "internalType": "uint256",
          "name": "amount",
          "type": "uint256"
        }
      ],
      "name": "purchasechainsaw",
      "outputs": [],
      "stateMutability": "payable",
      "type": "function",
      "payable": true
    }
  ],
  "bytecode": "0x608060405234801561001057600080fd5b50336000806101000a81548173ffffffffffffffffffffffffffffffffffffffff021916908373ffffffffffffffffffffffffffffffffffffffff1602179055506103e8600160003073ffffffffffffffffffffffffffffffffffffffff1673ffffffffffffffffffffffffffffffffffffffff168152602001908152602001600020819055506101f4600260003073ffffffffffffffffffffffffffffffffffffffff1673ffffffffffffffffffffffffffffffffffffffff168152602001908152602001600020819055506064600360003073ffffffffffffffffffffffffffffffffffffffff1673ffffffffffffffffffffffffffffffffffffffff16815260200190815260200160002081905550611076806101316000396000f3fe6080604052600436106100c25760003560e01c80636b88eb381161007f5780638da5cb5b116100595780638da5cb5b1461024f578063a7942d1c1461027a578063a7a5ffef146102a3578063ee84dd82146102ce576100c2565b80636b88eb38146101df5780636c88ebf71461020a5780637b6da96814610233576100c2565b806303a30f32146100c75780632a81b865146100f05780634aa75d801461012d5780635a076b8b14610149578063636eda331461018657806365d17d1c146101c3575b600080fd5b3480156100d357600080fd5b506100ee60048036038101906100e99190610bbc565b6102f9565b005b3480156100fc57600080fd5b5061011760048036038101906101129190610c47565b6103e0565b6040516101249190610c83565b60405180910390f35b61014760048036038101906101429190610bbc565b6103f8565b005b34801561015557600080fd5b50610170600480360381019061016b9190610c47565b61057e565b60405161017d9190610c83565b60405180910390f35b34801561019257600080fd5b506101ad60048036038101906101a89190610c47565b610596565b6040516101ba9190610c83565b60405180910390f35b6101dd60048036038101906101d89190610bbc565b6105ae565b005b3480156101eb57600080fd5b506101f4610734565b6040516102019190610c83565b60405180910390f35b34801561021657600080fd5b50610231600480360381019061022c9190610bbc565b61077b565b005b61024d60048036038101906102489190610bbc565b610862565b005b34801561025b57600080fd5b506102646109e8565b6040516102719190610cad565b60405180910390f35b34801561028657600080fd5b506102a1600480360381019061029c9190610bbc565b610a0c565b005b3480156102af57600080fd5b506102b8610af3565b6040516102c59190610c83565b60405180910390f35b3480156102da57600080fd5b506102e3610b3a565b6040516102f09190610c83565b60405180910390f35b60008054906101000a900473ffffffffffffffffffffffffffffffffffffffff1673ffffffffffffffffffffffffffffffffffffffff163373ffffffffffffffffffffffffffffffffffffffff1614610387576040517f08c379a000000000000000000000000000000000000000000000000000000000815260040161037e90610d25565b60405180910390fd5b80600360003073ffffffffffffffffffffffffffffffffffffffff1673ffffffffffffffffffffffffffffffffffffffff16815260200190815260200160002060008282546103d69190610d74565b9250508190555050565b60016020528060005260406000206000915090505481565b660110d9316ec0008161040b9190610da8565b34101561044d576040517f08c379a000000000000000000000000000000000000000000000000000000000815260040161044490610e36565b60405180910390fd5b80600160003073ffffffffffffffffffffffffffffffffffffffff1673ffffffffffffffffffffffffffffffffffffffff1681526020019081526020016000205410156104cf576040517f08c379a00000000000000000000000000000000000000000000000000000000081526004016104c690610ec8565b60405180910390fd5b80600160003073ffffffffffffffffffffffffffffffffffffffff1673ffffffffffffffffffffffffffffffffffffffff168152602001908152602001600020600082825461051e9190610ee8565b9250508190555080600160003373ffffffffffffffffffffffffffffffffffffffff1673ffffffffffffffffffffffffffffffffffffffff16815260200190815260200160002060008282546105749190610d74565b9250508190555050565b60036020528060005260406000206000915090505481565b60026020528060005260406000206000915090505481565b666a94d74f430000816105c19190610da8565b341015610603576040517f08c379a00000000000000000000000000000000000000000000000000000000081526004016105fa90610e36565b60405180910390fd5b80600360003073ffffffffffffffffffffffffffffffffffffffff1673ffffffffffffffffffffffffffffffffffffffff168152602001908152602001600020541015610685576040517f08c379a000000000000000000000000000000000000000000000000000000000815260040161067c90610f8e565b60405180910390fd5b80600360003073ffffffffffffffffffffffffffffffffffffffff1673ffffffffffffffffffffffffffffffffffffffff16815260200190815260200160002060008282546106d49190610ee8565b9250508190555080600360003373ffffffffffffffffffffffffffffffffffffffff1673ffffffffffffffffffffffffffffffffffffffff168152602001908152602001600020600082825461072a9190610d74565b9250508190555050565b6000600260003073ffffffffffffffffffffffffffffffffffffffff1673ffffffffffffffffffffffffffffffffffffffff16815260200190815260200160002054905090565b60008054906101000a900473ffffffffffffffffffffffffffffffffffffffff1673ffffffffffffffffffffffffffffffffffffffff163373ffffffffffffffffffffffffffffffffffffffff1614610809576040517f08c379a000000000000000000000000000000000000000000000000000000000815260040161080090610d25565b60405180910390fd5b80600260003073ffffffffffffffffffffffffffffffffffffffff1673ffffffffffffffffffffffffffffffffffffffff16815260200190815260200160002060008282546108589190610d74565b9250508190555050565b660110d9316ec000816108759190610da8565b3410156108b7576040517f08c379a00000000000000000000000000000000000000000000000000000000081526004016108ae90610e36565b60405180910390fd5b80600260003073ffffffffffffffffffffffffffffffffffffffff1673ffffffffffffffffffffffffffffffffffffffff168152602001908152602001600020541015610939576040517f08c379a000000000000000000000000000000000000000000000000000000000815260040161093090611020565b60405180910390fd5b80600260003073ffffffffffffffffffffffffffffffffffffffff1673ffffffffffffffffffffffffffffffffffffffff16815260200190815260200160002060008282546109889190610ee8565b9250508190555080600260003373ffffffffffffffffffffffffffffffffffffffff1673ffffffffffffffffffffffffffffffffffffffff16815260200190815260200160002060008282546109de9190610d74565b9250508190555050565b60008054906101000a900473ffffffffffffffffffffffffffffffffffffffff1681565b60008054906101000a900473ffffffffffffffffffffffffffffffffffffffff1673ffffffffffffffffffffffffffffffffffffffff163373ffffffffffffffffffffffffffffffffffffffff1614610a9a576040517f08c379a0000000000000000000000000000000000000000000000000000000008152600401610a9190610d25565b60405180910390fd5b80600160003073ffffffffffffffffffffffffffffffffffffffff1673ffffffffffffffffffffffffffffffffffffffff1681526020019081526020016000206000828254610ae99190610d74565b9250508190555050565b6000600160003073ffffffffffffffffffffffffffffffffffffffff1673ffffffffffffffffffffffffffffffffffffffff16815260200190815260200160002054905090565b6000600360003073ffffffffffffffffffffffffffffffffffffffff1673ffffffffffffffffffffffffffffffffffffffff16815260200190815260200160002054905090565b600080fd5b6000819050919050565b610b9981610b86565b8114610ba457600080fd5b50565b600081359050610bb681610b90565b92915050565b600060208284031215610bd257610bd1610b81565b5b6000610be084828501610ba7565b91505092915050565b600073ffffffffffffffffffffffffffffffffffffffff82169050919050565b6000610c1482610be9565b9050919050565b610c2481610c09565b8114610c2f57600080fd5b50565b600081359050610c4181610c1b565b92915050565b600060208284031215610c5d57610c5c610b81565b5b6000610c6b84828501610c32565b91505092915050565b610c7d81610b86565b82525050565b6000602082019050610c986000830184610c74565b92915050565b610ca781610c09565b82525050565b6000602082019050610cc26000830184610c9e565b92915050565b600082825260208201905092915050565b7f4f6e6c7920746865206f776e65722063616e20726573746f636b2e0000000000600082015250565b6000610d0f601b83610cc8565b9150610d1a82610cd9565b602082019050919050565b60006020820190508181036000830152610d3e81610d02565b9050919050565b7f4e487b7100000000000000000000000000000000000000000000000000000000600052601160045260246000fd5b6000610d7f82610b86565b9150610d8a83610b86565b9250828201905080821115610da257610da1610d45565b5b92915050565b6000610db382610b86565b9150610dbe83610b86565b9250828202610dcc81610b86565b91508282048414831517610de357610de2610d45565b5b5092915050565b7f596f75206861766520746f206c65737320657468657200000000000000000000600082015250565b6000610e20601683610cc8565b9150610e2b82610dea565b602082019050919050565b60006020820190508181036000830152610e4f81610e13565b9050919050565b7f4e6f7420656e6f75676820736e69636b65727320696e2073746f636b20746f2060008201527f636f6d706c657465207468697320707572636861736500000000000000000000602082015250565b6000610eb2603683610cc8565b9150610ebd82610e56565b604082019050919050565b60006020820190508181036000830152610ee181610ea5565b9050919050565b6000610ef382610b86565b9150610efe83610b86565b9250828203905081811115610f1657610f15610d45565b5b92915050565b7f4e6f7420656e6f75676820636861696e73617720696e2073746f636b20746f2060008201527f636f6d706c657465207468697320707572636861736500000000000000000000602082015250565b6000610f78603683610cc8565b9150610f8382610f1c565b604082019050919050565b60006020820190508181036000830152610fa781610f6b565b9050919050565b7f4e6f7420656e6f7567682063686577696e672067756d20696e2073746f636b2060008201527f746f20636f6d706c657465207468697320707572636861736500000000000000602082015250565b600061100a603983610cc8565b915061101582610fae565b604082019050919050565b6000602082019050818103600083015261103981610ffd565b905091905056fea264697066735822122073ac76f692302789ddee4b6a6a5b9be02bd08e1af1d32d6bd664b2a61ba98b7a64736f6c63430008110033",
  "immutableReferences": {},
  "source": "// SPDX-Licens-Identifier: UNLICENSED\r\npragma solidity ^0.8.17;\r\n\r\ncontract Shop {\r\n    address public owner;\r\n    mapping (address => uint) \r\n    public snickerBalance;\r\n\r\n    mapping (address => uint) \r\n    public chewingGumBalance;\r\n\r\n    mapping (address => uint) \r\n    public chainsawBalance;\r\n\r\n    constructor() {\r\n        owner = msg.sender;\r\n        snickerBalance[address(this)] = 1000;\r\n        chewingGumBalance[address(this)] = 500;\r\n        chainsawBalance[address(this)] = 100;\r\n    }\r\n\r\n//Snicker\r\n    function getSnickerBalance() public view returns (uint) {\r\n        return snickerBalance[address(this)];\r\n    }\r\n\r\n\r\n    function restockSnicker(uint amount) public {\r\n        require(msg.sender == owner, \"Only the owner can restock.\");\r\n        snickerBalance[address(this)] += amount;\r\n    }\r\n\r\n    function purchaseSnicker(uint amount) public payable {\r\n        require(msg.value >= amount * 0.0003 ether, \"You have to less ether\");\r\n        require(snickerBalance[address(this)] >= amount, \"Not enough snickers in stock to complete this purchase\");\r\n        snickerBalance[address(this)] -= amount;\r\n        snickerBalance[msg.sender] += amount;\r\n    }\r\n\r\n    //chewing gum\r\n\r\n    //Snicker\r\n    function getChewingGumBalance() public view returns (uint) {\r\n        return chewingGumBalance[address(this)];\r\n    }\r\n\r\n\r\n    function restockChewingGum(uint amount) public {\r\n        require(msg.sender == owner, \"Only the owner can restock.\");\r\n        chewingGumBalance[address(this)] += amount;\r\n    }\r\n\r\n    function purchaseChewingGum(uint amount) public payable {\r\n        require(msg.value >= amount * 0.0003 ether, \"You have to less ether\");\r\n        require(chewingGumBalance[address(this)] >= amount, \"Not enough chewing gum in stock to complete this purchase\");\r\n        chewingGumBalance[address(this)] -= amount;\r\n        chewingGumBalance[msg.sender] += amount;\r\n    }\r\n\r\n    //Chainsaw\r\n        function getChainsawBalance() public view returns (uint) {\r\n        return chainsawBalance[address(this)];\r\n    }\r\n\r\n\r\n    function restockchainsaw(uint amount) public {\r\n        require(msg.sender == owner, \"Only the owner can restock.\");\r\n        chainsawBalance[address(this)] += amount;\r\n    }\r\n\r\n    function purchasechainsaw(uint amount) public payable {\r\n        require(msg.value >= amount * 0.03 ether, \"You have to less ether\");\r\n        require(chainsawBalance[address(this)] >= amount, \"Not enough chainsaw in stock to complete this purchase\");\r\n        chainsawBalance[address(this)] -= amount;\r\n        chainsawBalance[msg.sender] += amount;\r\n    }\r\n}",
  "sourcePath": "C:\\Users\\achim\\Desktop\\FH\\blockchain\\truffle\\contracts\\Shop.sol",
  "compiler": {
    "name": "solc",
    "version": "0.8.17+commit.8df45f5f.Emscripten.clang"
  },
  "schemaVersion": "3.4.11",
  "updatedAt": "2022-12-15T15:41:12.331Z",
  "networkType": "ethereum",
  "devdoc": {
    "kind": "dev",
    "methods": {},
    "version": 1
  },
  "userdoc": {
    "kind": "user",
    "methods": {},
    "version": 1
  }
}